:0600000080312C2A0000F3
:0800080083018031200077081C
:10001000A0007808A1007908A2007A08A3002300B4
:1000200011082000A400230012082000A5002300CE
:1000300013082000A600230014082000A700850153
:1000400091308400801E2628911A3F282008F7004E
:100050002108F8002208F9002308FA0024082300E8
:10006000910020002508230092002000260823008C
:10007000930020002708230094000900200080310D
:100080005228911E412823001D082000B3002300A0
:100090001908F8002000B31C502823001D121D165B
:1000A00020000800BF08031D6D283E08093C031C02
:1000B0006D2814303E07840020303F3D8500DB0072
:1000C0000408DA0041205B0885005A08840078089B
:1000D0008000BE0A0319BF0A702841207808C000BA
:1000E000911280312628D43A72376532A0274623F0
:1000F0002028EF3B653920366937E5398A0600004C
:10010000D43A72376532A0274E10D037F7327210CA
:10011000EC34EE3273050D00533A61397410D0247B
:100120004310E2376F3A693767172E172E172E17CD
:100130002E172E178A060001D232F3327410F034D3
:100140006310E4346410EE377410F23273386F3792
:100150006410E63772107434F2326510ED34EE3A02
:10016000F4328A0600002030850032308400000816
:100170000319C8280530F800F701F70BBD28F80B64
:10018000BC282E30F700F70BC328C628800BBA28EE
:10019000080021008F1122008F110830F800D028AC
:1001A0000000F817E328F8132000D50C22000318EC
:1001B0008F15031C8F117817E3287813F80BD428B8
:1001C000E12800008F151B308400840BE528E82807
:1001D0000000F81BD328781BDD28200008000B083E
:1001E0008B1323009517151400000000891B8B1733
:1001F00013087F39031937292000CF002300110885
:100200002000D000230012082000D1004F08D500A4
:10021000C9205008230091002000510823009200BB
:100220000B088B139517151400000000891B8B1702
:10023000130D140D7F39031937292000CF00230037
:1002400011082000D000230012082000D1004F0820
:10025000D500C92050082300910020005108230038
:100260009200910A0319920A2000EF28230020002F
:10027000080021000F1322000F1732302000D20097
:10028000B32021008F1322008F1732302000D200BC
:10029000B32021000E1122000E1532302000D200B2
:1002A000B32021008E1222008E1632302000D200A0
:1002B000B3206930B20080302300910000309200FA
:1002C0002000EF200800BE08031D6929BF0803199C
:1002D00083291430410784002030423D8500000806
:1002E000C3003E080319BF03BE03C10A0319C20AB3
:1002F000BE08031D8029BF08031D8029C201C1015A
:100300004308F8008E29BE08031D8E29BF08031D6F
:100310008E29C201C101C3014308F80008003E084C
:10032000F800F8080319FD290A30D200B320CF01E4
:100330004F08073C031CA62963217808AA3C031D2B
:10034000A429AA30A800A629CF0A98290130D000F4
:100350005008093C031CC02908305007F800203021
:10036000FA000318FA0A7808D2007A08D300632149
:10037000530885005208840078088000D00AA82914
:10038000D1015108023C031CF729083051078400B1
:10039000203085000318850A0008D2005208D300D7
:1003A0003730D400D41BE4290F30F700530EF70583
:1003B0000A3077020318DF293030F707E1295408A3
:1003C000F7077708D500C9200F30D3050A3053024C
:1003D0000318EC293030EE29D4135408D3075308FE
:1003E000D500C9202030D500C920D10AC1290A3042
:1003F000D500C9200D30D500C9208031752A2100D3
:100400000F1322000F1321008F1322008F132100DE
:100410000E1122000E1121008E1222008E12963033
:100420002000B200733023009100003092002000C1
:10043000EF2080318D2ACF014F08093C031C2A2A66
:1004400008304F078400203085000318850A80019A
:10045000CF0A1C2A80318E2A21008F1122008F158D
:100460002000B30123009F1119309B00A6309E008D
:1004700090309D002000BF01BE01C001C201C1013A
:10048000C301C501C401C701C601C901C801CB012F
:10049000CA01CC0123008C018D018E018F019001D6
:1004A00022009201910102302000CF00FA30D200E8
:1004B000B320CF0B562A8C302300910000309200DD
:1004C0002000EF2021009116C0308B04200039213C
:1004D00021000D172000CE010D1BCE0A21008D1723
:1004E0002000CD018D1BCD0A8F294C08AA3C031D8D
:1004F000AE2A2808AA3C031D8E2A2908BB3C031DEE
:100500008E2A2A08CC3C031D8E2AC701C601C901C8
:10051000C8013208693C0319FF291B2AC908031DB9
:10052000952A4808313C03189A2AC901C801C60A0D
:100530000319C70AC708031DA12A4608233C03184C
:10054000AB2A9C3023009100003092002000EF2065
:10055000C701C6013921C80A0319C90ACC08031DFD
:10056000C12ACA0A0319CB0A4B088B3C0318C12ABB
:10057000FF3A031DBF2A4A089F3C0318C12AAA302C
:10058000CC006430D200B32021000D1104302200D1
:080590008D062000742A6300AF
:020000040001F9
:04000E00C239FF1ED6
:00000001FF
;PIC16F1789
;CRC=EFE5  CREATED="18-7-25 16:06"
